{
  "_format": "hh-sol-artifact-1",
  "contractName": "Raffle",
  "sourceName": "contracts/Raffle.sol",
  "abi": [
    {
      "inputs": [
        {
          "internalType": "address",
          "name": "vrfCoordinatorV2",
          "type": "address"
        },
        {
          "internalType": "uint256",
          "name": "entranceFee",
          "type": "uint256"
        },
        {
          "internalType": "bytes32",
          "name": "gasLane",
          "type": "bytes32"
        },
        {
          "internalType": "uint64",
          "name": "subscriptionId",
          "type": "uint64"
        },
        {
          "internalType": "uint32",
          "name": "callbackGasLimit",
          "type": "uint32"
        },
        {
          "internalType": "uint256",
          "name": "interval",
          "type": "uint256"
        }
      ],
      "stateMutability": "nonpayable",
      "type": "constructor"
    },
    {
      "inputs": [
        {
          "internalType": "address",
          "name": "have",
          "type": "address"
        },
        {
          "internalType": "address",
          "name": "want",
          "type": "address"
        }
      ],
      "name": "OnlyCoordinatorCanFulfill",
      "type": "error"
    },
    {
      "inputs": [],
      "name": "Raffle__NotEnoughETHEntered",
      "type": "error"
    },
    {
      "inputs": [],
      "name": "Raffle__NotOpen",
      "type": "error"
    },
    {
      "inputs": [],
      "name": "Raffle__TransferFailed",
      "type": "error"
    },
    {
      "inputs": [
        {
          "internalType": "uint256",
          "name": "currentBalance",
          "type": "uint256"
        },
        {
          "internalType": "uint256",
          "name": "numPlayers",
          "type": "uint256"
        },
        {
          "internalType": "uint256",
          "name": "raffleState",
          "type": "uint256"
        }
      ],
      "name": "Raffle__UpkeepNotNeeded",
      "type": "error"
    },
    {
      "anonymous": false,
      "inputs": [
        {
          "indexed": true,
          "internalType": "address",
          "name": "player",
          "type": "address"
        }
      ],
      "name": "RaffleEnter",
      "type": "event"
    },
    {
      "anonymous": false,
      "inputs": [
        {
          "indexed": true,
          "internalType": "uint256",
          "name": "requestId",
          "type": "uint256"
        }
      ],
      "name": "RequestedRaffleWinner",
      "type": "event"
    },
    {
      "anonymous": false,
      "inputs": [
        {
          "indexed": true,
          "internalType": "address",
          "name": "recentWinner",
          "type": "address"
        }
      ],
      "name": "WinnerPicked",
      "type": "event"
    },
    {
      "inputs": [
        {
          "internalType": "bytes",
          "name": "",
          "type": "bytes"
        }
      ],
      "name": "checkUpkeep",
      "outputs": [
        {
          "internalType": "bool",
          "name": "upkeepNeeded",
          "type": "bool"
        },
        {
          "internalType": "bytes",
          "name": "",
          "type": "bytes"
        }
      ],
      "stateMutability": "nonpayable",
      "type": "function"
    },
    {
      "inputs": [],
      "name": "enterRaffle",
      "outputs": [],
      "stateMutability": "payable",
      "type": "function"
    },
    {
      "inputs": [],
      "name": "getEntranceFee",
      "outputs": [
        {
          "internalType": "uint256",
          "name": "",
          "type": "uint256"
        }
      ],
      "stateMutability": "view",
      "type": "function"
    },
    {
      "inputs": [],
      "name": "getGaslane",
      "outputs": [
        {
          "internalType": "bytes32",
          "name": "",
          "type": "bytes32"
        }
      ],
      "stateMutability": "view",
      "type": "function"
    },
    {
      "inputs": [],
      "name": "getInterval",
      "outputs": [
        {
          "internalType": "uint256",
          "name": "",
          "type": "uint256"
        }
      ],
      "stateMutability": "view",
      "type": "function"
    },
    {
      "inputs": [],
      "name": "getLastTimeStamp",
      "outputs": [
        {
          "internalType": "uint256",
          "name": "",
          "type": "uint256"
        }
      ],
      "stateMutability": "view",
      "type": "function"
    },
    {
      "inputs": [],
      "name": "getNumWords",
      "outputs": [
        {
          "internalType": "uint256",
          "name": "",
          "type": "uint256"
        }
      ],
      "stateMutability": "pure",
      "type": "function"
    },
    {
      "inputs": [],
      "name": "getNumberOfPlayers",
      "outputs": [
        {
          "internalType": "uint256",
          "name": "",
          "type": "uint256"
        }
      ],
      "stateMutability": "view",
      "type": "function"
    },
    {
      "inputs": [
        {
          "internalType": "uint256",
          "name": "playerIndex",
          "type": "uint256"
        }
      ],
      "name": "getPlayer",
      "outputs": [
        {
          "internalType": "address",
          "name": "",
          "type": "address"
        }
      ],
      "stateMutability": "view",
      "type": "function"
    },
    {
      "inputs": [],
      "name": "getRaffleState",
      "outputs": [
        {
          "internalType": "enum Raffle.RaffleState",
          "name": "",
          "type": "uint8"
        }
      ],
      "stateMutability": "view",
      "type": "function"
    },
    {
      "inputs": [],
      "name": "getRecentWinner",
      "outputs": [
        {
          "internalType": "address",
          "name": "",
          "type": "address"
        }
      ],
      "stateMutability": "view",
      "type": "function"
    },
    {
      "inputs": [],
      "name": "getRequestConfirmations",
      "outputs": [
        {
          "internalType": "uint256",
          "name": "",
          "type": "uint256"
        }
      ],
      "stateMutability": "pure",
      "type": "function"
    },
    {
      "inputs": [],
      "name": "getSubscriptionId",
      "outputs": [
        {
          "internalType": "uint64",
          "name": "",
          "type": "uint64"
        }
      ],
      "stateMutability": "view",
      "type": "function"
    },
    {
      "inputs": [
        {
          "internalType": "bytes",
          "name": "",
          "type": "bytes"
        }
      ],
      "name": "performUpkeep",
      "outputs": [],
      "stateMutability": "nonpayable",
      "type": "function"
    },
    {
      "inputs": [
        {
          "internalType": "uint256",
          "name": "requestId",
          "type": "uint256"
        },
        {
          "internalType": "uint256[]",
          "name": "randomWords",
          "type": "uint256[]"
        }
      ],
      "name": "rawFulfillRandomWords",
      "outputs": [],
      "stateMutability": "nonpayable",
      "type": "function"
    }
  ],
  "bytecode": "0x6101606040523480156200001257600080fd5b506040516200186938038062001869833981810160405281019062000038919062000294565b858073ffffffffffffffffffffffffffffffffffffffff1660808173ffffffffffffffffffffffffffffffffffffffff1681525050508460a081815250508573ffffffffffffffffffffffffffffffffffffffff1660c08173ffffffffffffffffffffffffffffffffffffffff16815250508360e081815250508267ffffffffffffffff166101008167ffffffffffffffff16815250508163ffffffff166101208163ffffffff16815250506000600160146101000a81548160ff021916908360018111156200010d576200010c62000330565b5b0217905550426002819055508061014081815250505050505050506200035f565b600080fd5b600073ffffffffffffffffffffffffffffffffffffffff82169050919050565b6000620001608262000133565b9050919050565b620001728162000153565b81146200017e57600080fd5b50565b600081519050620001928162000167565b92915050565b6000819050919050565b620001ad8162000198565b8114620001b957600080fd5b50565b600081519050620001cd81620001a2565b92915050565b6000819050919050565b620001e881620001d3565b8114620001f457600080fd5b50565b6000815190506200020881620001dd565b92915050565b600067ffffffffffffffff82169050919050565b6200022d816200020e565b81146200023957600080fd5b50565b6000815190506200024d8162000222565b92915050565b600063ffffffff82169050919050565b6200026e8162000253565b81146200027a57600080fd5b50565b6000815190506200028e8162000263565b92915050565b60008060008060008060c08789031215620002b457620002b36200012e565b5b6000620002c489828a0162000181565b9650506020620002d789828a01620001bc565b9550506040620002ea89828a01620001f7565b9450506060620002fd89828a016200023c565b93505060806200031089828a016200027d565b92505060a06200032389828a01620001bc565b9150509295509295509295565b7f4e487b7100000000000000000000000000000000000000000000000000000000600052602160045260246000fd5b60805160a05160c05160e05161010051610120516101405161148c620003dd6000396000818161085801526108c6015260006107170152600081816106f401526109200152600081816106d301526108ee0152600061069701526000818161037601526104730152600081816103b30152610407015261148c6000f3fe6080604052600436106100e85760003560e01c80635f1b0fd81161008a578063c1c244e811610059578063c1c244e8146102b4578063de3d9fb7146102df578063e55ae4e81461030a578063fd6673f514610347576100e8565b80635f1b0fd8146101f55780636e04ff0d1461022057806391ad27b41461025e578063bafe1a9e14610289576100e8565b80632cfcc539116100c65780632cfcc5391461016c5780634585e33b14610176578063473f1ddc1461019f57806353a2c19a146101ca576100e8565b806309bc33a7146100ed578063115cbaf5146101185780631fe543e314610143575b600080fd5b3480156100f957600080fd5b50610102610372565b60405161010f9190610c88565b60405180910390f35b34801561012457600080fd5b5061012d61039a565b60405161013a9190610d1a565b60405180910390f35b34801561014f57600080fd5b5061016a60048036038101906101659190610ece565b6103b1565b005b610174610471565b005b34801561018257600080fd5b5061019d60048036038101906101989190610fdf565b6105e0565b005b3480156101ab57600080fd5b506101b46107cf565b6040516101c19190611069565b60405180910390f35b3480156101d657600080fd5b506101df6107f9565b6040516101ec9190610c88565b60405180910390f35b34801561020157600080fd5b5061020a610808565b6040516102179190610c88565b60405180910390f35b34801561022c57600080fd5b5061024760048036038101906102429190610fdf565b610815565b60405161025592919061111e565b60405180910390f35b34801561026a57600080fd5b506102736108c2565b6040516102809190610c88565b60405180910390f35b34801561029557600080fd5b5061029e6108ea565b6040516102ab9190611167565b60405180910390f35b3480156102c057600080fd5b506102c9610912565b6040516102d69190610c88565b60405180910390f35b3480156102eb57600080fd5b506102f461091c565b60405161030191906111a5565b60405180910390f35b34801561031657600080fd5b50610331600480360381019061032c91906111c0565b610944565b60405161033e9190611069565b60405180910390f35b34801561035357600080fd5b5061035c61098b565b6040516103699190610c88565b60405180910390f35b60007f0000000000000000000000000000000000000000000000000000000000000000905090565b6000600160149054906101000a900460ff16905090565b7f000000000000000000000000000000000000000000000000000000000000000073ffffffffffffffffffffffffffffffffffffffff163373ffffffffffffffffffffffffffffffffffffffff161461046357337f00000000000000000000000000000000000000000000000000000000000000006040517f1cf993f400000000000000000000000000000000000000000000000000000000815260040161045a9291906111ed565b60405180910390fd5b61046d8282610997565b5050565b7f00000000000000000000000000000000000000000000000000000000000000003410156104cb576040517fbd4e069500000000000000000000000000000000000000000000000000000000815260040160405180910390fd5b600060018111156104df576104de610ca3565b5b600160149054906101000a900460ff16600181111561050157610500610ca3565b5b14610538576040517f1425571c00000000000000000000000000000000000000000000000000000000815260040160405180910390fd5b6000339080600181540180825580915050600190039060005260206000200160009091909190916101000a81548173ffffffffffffffffffffffffffffffffffffffff021916908373ffffffffffffffffffffffffffffffffffffffff1602179055503373ffffffffffffffffffffffffffffffffffffffff167f0805e1d667bddb8a95f0f09880cf94f403fb596ce79928d9f29b74203ba284d460405160405180910390a2565b60006105fa60405180602001604052806000815250610815565b509050806106695747600080549050600160149054906101000a900460ff16600181111561062b5761062a610ca3565b5b6040517f584327aa00000000000000000000000000000000000000000000000000000000815260040161066093929190611216565b60405180910390fd5b60018060146101000a81548160ff0219169083600181111561068e5761068d610ca3565b5b021790555060007f000000000000000000000000000000000000000000000000000000000000000073ffffffffffffffffffffffffffffffffffffffff16635d3b1d307f00000000000000000000000000000000000000000000000000000000000000007f000000000000000000000000000000000000000000000000000000000000000060037f000000000000000000000000000000000000000000000000000000000000000060016040518663ffffffff1660e01b8152600401610758959493929190611289565b6020604051808303816000875af1158015610777573d6000803e3d6000fd5b505050506040513d601f19601f8201168201806040525081019061079b91906112f1565b9050807fcd6e45c8998311cab7e9d4385596cac867e20a0587194b954fa3a731c93ce78b60405160405180910390a2505050565b6000600160009054906101000a900473ffffffffffffffffffffffffffffffffffffffff16905090565b6000600163ffffffff16905090565b6000600361ffff16905090565b600060606000600160149054906101000a900460ff16600181111561083d5761083c610ca3565b5b6000600181111561085157610850610ca3565b5b14905060007f000000000000000000000000000000000000000000000000000000000000000060025442610885919061134d565b119050600080600080549050119050600080471190508380156108a55750815b80156108ae5750805b80156108b75750825b955050505050915091565b60007f0000000000000000000000000000000000000000000000000000000000000000905090565b60007f0000000000000000000000000000000000000000000000000000000000000000905090565b6000600254905090565b60007f0000000000000000000000000000000000000000000000000000000000000000905090565b600080828154811061095957610958611381565b5b9060005260206000200160009054906101000a900473ffffffffffffffffffffffffffffffffffffffff169050919050565b60008080549050905090565b60008080549050826000815181106109b2576109b1611381565b5b60200260200101516109c491906113df565b905060008082815481106109db576109da611381565b5b9060005260206000200160009054906101000a900473ffffffffffffffffffffffffffffffffffffffff16905080600160006101000a81548173ffffffffffffffffffffffffffffffffffffffff021916908373ffffffffffffffffffffffffffffffffffffffff160217905550426002819055506000600160146101000a81548160ff02191690836001811115610a7657610a75610ca3565b5b0217905550600067ffffffffffffffff811115610a9657610a95610d8b565b5b604051908082528060200260200182016040528015610ac45781602001602082028036833780820191505090505b5060009080519060200190610ada929190610bc8565b5060008173ffffffffffffffffffffffffffffffffffffffff1647604051610b0190611441565b60006040518083038185875af1925050503d8060008114610b3e576040519150601f19603f3d011682016040523d82523d6000602084013e610b43565b606091505b5050905080610b7e576040517fa1d04b3900000000000000000000000000000000000000000000000000000000815260040160405180910390fd5b8173ffffffffffffffffffffffffffffffffffffffff167f5b690ec4a06fe979403046eaeea5b3ce38524683c3001f662c8b5a829632f7df60405160405180910390a25050505050565b828054828255906000526020600020908101928215610c41579160200282015b82811115610c405782518260006101000a81548173ffffffffffffffffffffffffffffffffffffffff021916908373ffffffffffffffffffffffffffffffffffffffff16021790555091602001919060010190610be8565b5b509050610c4e9190610c52565b5090565b5b80821115610c6b576000816000905550600101610c53565b5090565b6000819050919050565b610c8281610c6f565b82525050565b6000602082019050610c9d6000830184610c79565b92915050565b7f4e487b7100000000000000000000000000000000000000000000000000000000600052602160045260246000fd5b60028110610ce357610ce2610ca3565b5b50565b6000819050610cf482610cd2565b919050565b6000610d0482610ce6565b9050919050565b610d1481610cf9565b82525050565b6000602082019050610d2f6000830184610d0b565b92915050565b6000604051905090565b600080fd5b600080fd5b610d5281610c6f565b8114610d5d57600080fd5b50565b600081359050610d6f81610d49565b92915050565b600080fd5b6000601f19601f8301169050919050565b7f4e487b7100000000000000000000000000000000000000000000000000000000600052604160045260246000fd5b610dc382610d7a565b810181811067ffffffffffffffff82111715610de257610de1610d8b565b5b80604052505050565b6000610df5610d35565b9050610e018282610dba565b919050565b600067ffffffffffffffff821115610e2157610e20610d8b565b5b602082029050602081019050919050565b600080fd5b6000610e4a610e4584610e06565b610deb565b90508083825260208201905060208402830185811115610e6d57610e6c610e32565b5b835b81811015610e965780610e828882610d60565b845260208401935050602081019050610e6f565b5050509392505050565b600082601f830112610eb557610eb4610d75565b5b8135610ec5848260208601610e37565b91505092915050565b60008060408385031215610ee557610ee4610d3f565b5b6000610ef385828601610d60565b925050602083013567ffffffffffffffff811115610f1457610f13610d44565b5b610f2085828601610ea0565b9150509250929050565b600080fd5b600067ffffffffffffffff821115610f4a57610f49610d8b565b5b610f5382610d7a565b9050602081019050919050565b82818337600083830152505050565b6000610f82610f7d84610f2f565b610deb565b905082815260208101848484011115610f9e57610f9d610f2a565b5b610fa9848285610f60565b509392505050565b600082601f830112610fc657610fc5610d75565b5b8135610fd6848260208601610f6f565b91505092915050565b600060208284031215610ff557610ff4610d3f565b5b600082013567ffffffffffffffff81111561101357611012610d44565b5b61101f84828501610fb1565b91505092915050565b600073ffffffffffffffffffffffffffffffffffffffff82169050919050565b600061105382611028565b9050919050565b61106381611048565b82525050565b600060208201905061107e600083018461105a565b92915050565b60008115159050919050565b61109981611084565b82525050565b600081519050919050565b600082825260208201905092915050565b60005b838110156110d95780820151818401526020810190506110be565b60008484015250505050565b60006110f08261109f565b6110fa81856110aa565b935061110a8185602086016110bb565b61111381610d7a565b840191505092915050565b60006040820190506111336000830185611090565b818103602083015261114581846110e5565b90509392505050565b6000819050919050565b6111618161114e565b82525050565b600060208201905061117c6000830184611158565b92915050565b600067ffffffffffffffff82169050919050565b61119f81611182565b82525050565b60006020820190506111ba6000830184611196565b92915050565b6000602082840312156111d6576111d5610d3f565b5b60006111e484828501610d60565b91505092915050565b6000604082019050611202600083018561105a565b61120f602083018461105a565b9392505050565b600060608201905061122b6000830186610c79565b6112386020830185610c79565b6112456040830184610c79565b949350505050565b600061ffff82169050919050565b6112648161124d565b82525050565b600063ffffffff82169050919050565b6112838161126a565b82525050565b600060a08201905061129e6000830188611158565b6112ab6020830187611196565b6112b8604083018661125b565b6112c5606083018561127a565b6112d2608083018461127a565b9695505050505050565b6000815190506112eb81610d49565b92915050565b60006020828403121561130757611306610d3f565b5b6000611315848285016112dc565b91505092915050565b7f4e487b7100000000000000000000000000000000000000000000000000000000600052601160045260246000fd5b600061135882610c6f565b915061136383610c6f565b925082820390508181111561137b5761137a61131e565b5b92915050565b7f4e487b7100000000000000000000000000000000000000000000000000000000600052603260045260246000fd5b7f4e487b7100000000000000000000000000000000000000000000000000000000600052601260045260246000fd5b60006113ea82610c6f565b91506113f583610c6f565b925082611405576114046113b0565b5b828206905092915050565b600081905092915050565b50565b600061142b600083611410565b91506114368261141b565b600082019050919050565b600061144c8261141e565b915081905091905056fea26469706673582212205f22f741bee884644a506e1e91a7d81f1f55ba460117d1a10317839ab448f6f064736f6c63430008120033",
  "linkReferences": {},
  "deployedLinkReferences": {}
}