{
  "address": "0xCf7Ed3AccA5a467e9e704C703E8D87F634fB0Fc9",
  "abi": [
    {
      "inputs": [
        {
          "internalType": "address",
          "name": "vrfCoordinatorV2",
          "type": "address"
        },
        {
          "internalType": "uint256",
          "name": "entranceFee",
          "type": "uint256"
        },
        {
          "internalType": "bytes32",
          "name": "gasLane",
          "type": "bytes32"
        },
        {
          "internalType": "uint64",
          "name": "subscriptionId",
          "type": "uint64"
        },
        {
          "internalType": "uint32",
          "name": "callbackGasLimit",
          "type": "uint32"
        },
        {
          "internalType": "uint256",
          "name": "interval",
          "type": "uint256"
        }
      ],
      "stateMutability": "nonpayable",
      "type": "constructor"
    },
    {
      "inputs": [
        {
          "internalType": "address",
          "name": "have",
          "type": "address"
        },
        {
          "internalType": "address",
          "name": "want",
          "type": "address"
        }
      ],
      "name": "OnlyCoordinatorCanFulfill",
      "type": "error"
    },
    {
      "inputs": [],
      "name": "Raffle__NotEnoughETHEntered",
      "type": "error"
    },
    {
      "inputs": [],
      "name": "Raffle__NotOpen",
      "type": "error"
    },
    {
      "inputs": [],
      "name": "Raffle__TransferFailed",
      "type": "error"
    },
    {
      "inputs": [
        {
          "internalType": "uint256",
          "name": "currentBalance",
          "type": "uint256"
        },
        {
          "internalType": "uint256",
          "name": "numPlayers",
          "type": "uint256"
        },
        {
          "internalType": "uint256",
          "name": "raffleState",
          "type": "uint256"
        }
      ],
      "name": "Raffle__UpkeepNotNeeded",
      "type": "error"
    },
    {
      "anonymous": false,
      "inputs": [
        {
          "indexed": true,
          "internalType": "address",
          "name": "player",
          "type": "address"
        }
      ],
      "name": "RaffleEnter",
      "type": "event"
    },
    {
      "anonymous": false,
      "inputs": [
        {
          "indexed": true,
          "internalType": "uint256",
          "name": "requestId",
          "type": "uint256"
        }
      ],
      "name": "RequestedRaffleWinner",
      "type": "event"
    },
    {
      "anonymous": false,
      "inputs": [
        {
          "indexed": true,
          "internalType": "address",
          "name": "recentWinner",
          "type": "address"
        }
      ],
      "name": "WinnerPicked",
      "type": "event"
    },
    {
      "inputs": [
        {
          "internalType": "bytes",
          "name": "",
          "type": "bytes"
        }
      ],
      "name": "checkUpkeep",
      "outputs": [
        {
          "internalType": "bool",
          "name": "upkeepNeeded",
          "type": "bool"
        },
        {
          "internalType": "bytes",
          "name": "",
          "type": "bytes"
        }
      ],
      "stateMutability": "nonpayable",
      "type": "function"
    },
    {
      "inputs": [],
      "name": "enterRaffle",
      "outputs": [],
      "stateMutability": "payable",
      "type": "function"
    },
    {
      "inputs": [],
      "name": "getEntranceFee",
      "outputs": [
        {
          "internalType": "uint256",
          "name": "",
          "type": "uint256"
        }
      ],
      "stateMutability": "view",
      "type": "function"
    },
    {
      "inputs": [],
      "name": "getGaslane",
      "outputs": [
        {
          "internalType": "bytes32",
          "name": "",
          "type": "bytes32"
        }
      ],
      "stateMutability": "view",
      "type": "function"
    },
    {
      "inputs": [],
      "name": "getInterval",
      "outputs": [
        {
          "internalType": "uint256",
          "name": "",
          "type": "uint256"
        }
      ],
      "stateMutability": "view",
      "type": "function"
    },
    {
      "inputs": [],
      "name": "getLastTimeStamp",
      "outputs": [
        {
          "internalType": "uint256",
          "name": "",
          "type": "uint256"
        }
      ],
      "stateMutability": "view",
      "type": "function"
    },
    {
      "inputs": [],
      "name": "getNumWords",
      "outputs": [
        {
          "internalType": "uint256",
          "name": "",
          "type": "uint256"
        }
      ],
      "stateMutability": "pure",
      "type": "function"
    },
    {
      "inputs": [],
      "name": "getNumberOfPlayers",
      "outputs": [
        {
          "internalType": "uint256",
          "name": "",
          "type": "uint256"
        }
      ],
      "stateMutability": "view",
      "type": "function"
    },
    {
      "inputs": [
        {
          "internalType": "uint256",
          "name": "playerIndex",
          "type": "uint256"
        }
      ],
      "name": "getPlayer",
      "outputs": [
        {
          "internalType": "address",
          "name": "",
          "type": "address"
        }
      ],
      "stateMutability": "view",
      "type": "function"
    },
    {
      "inputs": [],
      "name": "getRaffleState",
      "outputs": [
        {
          "internalType": "enum Raffle.RaffleState",
          "name": "",
          "type": "uint8"
        }
      ],
      "stateMutability": "view",
      "type": "function"
    },
    {
      "inputs": [],
      "name": "getRecentWinner",
      "outputs": [
        {
          "internalType": "address",
          "name": "",
          "type": "address"
        }
      ],
      "stateMutability": "view",
      "type": "function"
    },
    {
      "inputs": [],
      "name": "getRequestConfirmations",
      "outputs": [
        {
          "internalType": "uint256",
          "name": "",
          "type": "uint256"
        }
      ],
      "stateMutability": "pure",
      "type": "function"
    },
    {
      "inputs": [],
      "name": "getSubscriptionId",
      "outputs": [
        {
          "internalType": "uint64",
          "name": "",
          "type": "uint64"
        }
      ],
      "stateMutability": "view",
      "type": "function"
    },
    {
      "inputs": [
        {
          "internalType": "bytes",
          "name": "",
          "type": "bytes"
        }
      ],
      "name": "performUpkeep",
      "outputs": [],
      "stateMutability": "nonpayable",
      "type": "function"
    },
    {
      "inputs": [
        {
          "internalType": "uint256",
          "name": "requestId",
          "type": "uint256"
        },
        {
          "internalType": "uint256[]",
          "name": "randomWords",
          "type": "uint256[]"
        }
      ],
      "name": "rawFulfillRandomWords",
      "outputs": [],
      "stateMutability": "nonpayable",
      "type": "function"
    }
  ],
  "transactionHash": "0xa91bf27a28fafd2562147900571dc014778e643361ef47bd5be4ccb79bc0a059",
  "args": [
    "0x5FbDB2315678afecb367f032d93F642f64180aa3",
    "10000000000000000",
    "0x474e34a077df58807dbe9c96d3c009b23b3c6d0cce433e59bbf5b34f823bc56c",
    "1",
    "500000",
    "30"
  ],
  "numDeployments": 1,
  "solcInputHash": "0b9c94d3485e74694aa48e5faebb58f7",
  "bytecode": "0x6101606040523480156200001257600080fd5b50604051620018a4380380620018a4833981810160405281019062000038919062000294565b858073ffffffffffffffffffffffffffffffffffffffff1660808173ffffffffffffffffffffffffffffffffffffffff1681525050508460a081815250508573ffffffffffffffffffffffffffffffffffffffff1660c08173ffffffffffffffffffffffffffffffffffffffff16815250508360e081815250508267ffffffffffffffff166101008167ffffffffffffffff16815250508163ffffffff166101208163ffffffff16815250506000600160146101000a81548160ff021916908360018111156200010d576200010c62000330565b5b0217905550426002819055508061014081815250505050505050506200035f565b600080fd5b600073ffffffffffffffffffffffffffffffffffffffff82169050919050565b6000620001608262000133565b9050919050565b620001728162000153565b81146200017e57600080fd5b50565b600081519050620001928162000167565b92915050565b6000819050919050565b620001ad8162000198565b8114620001b957600080fd5b50565b600081519050620001cd81620001a2565b92915050565b6000819050919050565b620001e881620001d3565b8114620001f457600080fd5b50565b6000815190506200020881620001dd565b92915050565b600067ffffffffffffffff82169050919050565b6200022d816200020e565b81146200023957600080fd5b50565b6000815190506200024d8162000222565b92915050565b600063ffffffff82169050919050565b6200026e8162000253565b81146200027a57600080fd5b50565b6000815190506200028e8162000263565b92915050565b60008060008060008060c08789031215620002b457620002b36200012e565b5b6000620002c489828a0162000181565b9650506020620002d789828a01620001bc565b9550506040620002ea89828a01620001f7565b9450506060620002fd89828a016200023c565b93505060806200031089828a016200027d565b92505060a06200032389828a01620001bc565b9150509295509295509295565b7f4e487b7100000000000000000000000000000000000000000000000000000000600052602160045260246000fd5b60805160a05160c05160e0516101005161012051610140516114c7620003dd600039600081816108580152610901015260006107170152600081816106f4015261095b0152600081816106d301526109290152600061069701526000818161037601526104730152600081816103b3015261040701526114c76000f3fe6080604052600436106100e85760003560e01c80635f1b0fd81161008a578063c1c244e811610059578063c1c244e8146102b4578063de3d9fb7146102df578063e55ae4e81461030a578063fd6673f514610347576100e8565b80635f1b0fd8146101f55780636e04ff0d1461022057806391ad27b41461025e578063bafe1a9e14610289576100e8565b80632cfcc539116100c65780632cfcc5391461016c5780634585e33b14610176578063473f1ddc1461019f57806353a2c19a146101ca576100e8565b806309bc33a7146100ed578063115cbaf5146101185780631fe543e314610143575b600080fd5b3480156100f957600080fd5b50610102610372565b60405161010f9190610cc3565b60405180910390f35b34801561012457600080fd5b5061012d61039a565b60405161013a9190610d55565b60405180910390f35b34801561014f57600080fd5b5061016a60048036038101906101659190610f09565b6103b1565b005b610174610471565b005b34801561018257600080fd5b5061019d6004803603810190610198919061101a565b6105e0565b005b3480156101ab57600080fd5b506101b46107cf565b6040516101c191906110a4565b60405180910390f35b3480156101d657600080fd5b506101df6107f9565b6040516101ec9190610cc3565b60405180910390f35b34801561020157600080fd5b5061020a610808565b6040516102179190610cc3565b60405180910390f35b34801561022c57600080fd5b506102476004803603810190610242919061101a565b610815565b604051610255929190611159565b60405180910390f35b34801561026a57600080fd5b506102736108fd565b6040516102809190610cc3565b60405180910390f35b34801561029557600080fd5b5061029e610925565b6040516102ab91906111a2565b60405180910390f35b3480156102c057600080fd5b506102c961094d565b6040516102d69190610cc3565b60405180910390f35b3480156102eb57600080fd5b506102f4610957565b60405161030191906111e0565b60405180910390f35b34801561031657600080fd5b50610331600480360381019061032c91906111fb565b61097f565b60405161033e91906110a4565b60405180910390f35b34801561035357600080fd5b5061035c6109c6565b6040516103699190610cc3565b60405180910390f35b60007f0000000000000000000000000000000000000000000000000000000000000000905090565b6000600160149054906101000a900460ff16905090565b7f000000000000000000000000000000000000000000000000000000000000000073ffffffffffffffffffffffffffffffffffffffff163373ffffffffffffffffffffffffffffffffffffffff161461046357337f00000000000000000000000000000000000000000000000000000000000000006040517f1cf993f400000000000000000000000000000000000000000000000000000000815260040161045a929190611228565b60405180910390fd5b61046d82826109d2565b5050565b7f00000000000000000000000000000000000000000000000000000000000000003410156104cb576040517fbd4e069500000000000000000000000000000000000000000000000000000000815260040160405180910390fd5b600060018111156104df576104de610cde565b5b600160149054906101000a900460ff16600181111561050157610500610cde565b5b14610538576040517f1425571c00000000000000000000000000000000000000000000000000000000815260040160405180910390fd5b6000339080600181540180825580915050600190039060005260206000200160009091909190916101000a81548173ffffffffffffffffffffffffffffffffffffffff021916908373ffffffffffffffffffffffffffffffffffffffff1602179055503373ffffffffffffffffffffffffffffffffffffffff167f0805e1d667bddb8a95f0f09880cf94f403fb596ce79928d9f29b74203ba284d460405160405180910390a2565b60006105fa60405180602001604052806000815250610815565b509050806106695747600080549050600160149054906101000a900460ff16600181111561062b5761062a610cde565b5b6040517f584327aa00000000000000000000000000000000000000000000000000000000815260040161066093929190611251565b60405180910390fd5b60018060146101000a81548160ff0219169083600181111561068e5761068d610cde565b5b021790555060007f000000000000000000000000000000000000000000000000000000000000000073ffffffffffffffffffffffffffffffffffffffff16635d3b1d307f00000000000000000000000000000000000000000000000000000000000000007f000000000000000000000000000000000000000000000000000000000000000060037f000000000000000000000000000000000000000000000000000000000000000060016040518663ffffffff1660e01b81526004016107589594939291906112c4565b6020604051808303816000875af1158015610777573d6000803e3d6000fd5b505050506040513d601f19601f8201168201806040525081019061079b919061132c565b9050807fcd6e45c8998311cab7e9d4385596cac867e20a0587194b954fa3a731c93ce78b60405160405180910390a2505050565b6000600160009054906101000a900473ffffffffffffffffffffffffffffffffffffffff16905090565b6000600163ffffffff16905090565b6000600361ffff16905090565b600060606000600160149054906101000a900460ff16600181111561083d5761083c610cde565b5b6000600181111561085157610850610cde565b5b14905060007f0000000000000000000000000000000000000000000000000000000000000000600254426108859190611388565b119050600080600080549050119050600080471190508380156108a55750815b80156108ae5750805b80156108b75750825b9550856040518060400160405280600381526020017f30783000000000000000000000000000000000000000000000000000000000008152509550955050505050915091565b60007f0000000000000000000000000000000000000000000000000000000000000000905090565b60007f0000000000000000000000000000000000000000000000000000000000000000905090565b6000600254905090565b60007f0000000000000000000000000000000000000000000000000000000000000000905090565b6000808281548110610994576109936113bc565b5b9060005260206000200160009054906101000a900473ffffffffffffffffffffffffffffffffffffffff169050919050565b60008080549050905090565b60008080549050826000815181106109ed576109ec6113bc565b5b60200260200101516109ff919061141a565b90506000808281548110610a1657610a156113bc565b5b9060005260206000200160009054906101000a900473ffffffffffffffffffffffffffffffffffffffff16905080600160006101000a81548173ffffffffffffffffffffffffffffffffffffffff021916908373ffffffffffffffffffffffffffffffffffffffff160217905550426002819055506000600160146101000a81548160ff02191690836001811115610ab157610ab0610cde565b5b0217905550600067ffffffffffffffff811115610ad157610ad0610dc6565b5b604051908082528060200260200182016040528015610aff5781602001602082028036833780820191505090505b5060009080519060200190610b15929190610c03565b5060008173ffffffffffffffffffffffffffffffffffffffff1647604051610b3c9061147c565b60006040518083038185875af1925050503d8060008114610b79576040519150601f19603f3d011682016040523d82523d6000602084013e610b7e565b606091505b5050905080610bb9576040517fa1d04b3900000000000000000000000000000000000000000000000000000000815260040160405180910390fd5b8173ffffffffffffffffffffffffffffffffffffffff167f5b690ec4a06fe979403046eaeea5b3ce38524683c3001f662c8b5a829632f7df60405160405180910390a25050505050565b828054828255906000526020600020908101928215610c7c579160200282015b82811115610c7b5782518260006101000a81548173ffffffffffffffffffffffffffffffffffffffff021916908373ffffffffffffffffffffffffffffffffffffffff16021790555091602001919060010190610c23565b5b509050610c899190610c8d565b5090565b5b80821115610ca6576000816000905550600101610c8e565b5090565b6000819050919050565b610cbd81610caa565b82525050565b6000602082019050610cd86000830184610cb4565b92915050565b7f4e487b7100000000000000000000000000000000000000000000000000000000600052602160045260246000fd5b60028110610d1e57610d1d610cde565b5b50565b6000819050610d2f82610d0d565b919050565b6000610d3f82610d21565b9050919050565b610d4f81610d34565b82525050565b6000602082019050610d6a6000830184610d46565b92915050565b6000604051905090565b600080fd5b600080fd5b610d8d81610caa565b8114610d9857600080fd5b50565b600081359050610daa81610d84565b92915050565b600080fd5b6000601f19601f8301169050919050565b7f4e487b7100000000000000000000000000000000000000000000000000000000600052604160045260246000fd5b610dfe82610db5565b810181811067ffffffffffffffff82111715610e1d57610e1c610dc6565b5b80604052505050565b6000610e30610d70565b9050610e3c8282610df5565b919050565b600067ffffffffffffffff821115610e5c57610e5b610dc6565b5b602082029050602081019050919050565b600080fd5b6000610e85610e8084610e41565b610e26565b90508083825260208201905060208402830185811115610ea857610ea7610e6d565b5b835b81811015610ed15780610ebd8882610d9b565b845260208401935050602081019050610eaa565b5050509392505050565b600082601f830112610ef057610eef610db0565b5b8135610f00848260208601610e72565b91505092915050565b60008060408385031215610f2057610f1f610d7a565b5b6000610f2e85828601610d9b565b925050602083013567ffffffffffffffff811115610f4f57610f4e610d7f565b5b610f5b85828601610edb565b9150509250929050565b600080fd5b600067ffffffffffffffff821115610f8557610f84610dc6565b5b610f8e82610db5565b9050602081019050919050565b82818337600083830152505050565b6000610fbd610fb884610f6a565b610e26565b905082815260208101848484011115610fd957610fd8610f65565b5b610fe4848285610f9b565b509392505050565b600082601f83011261100157611000610db0565b5b8135611011848260208601610faa565b91505092915050565b6000602082840312156110305761102f610d7a565b5b600082013567ffffffffffffffff81111561104e5761104d610d7f565b5b61105a84828501610fec565b91505092915050565b600073ffffffffffffffffffffffffffffffffffffffff82169050919050565b600061108e82611063565b9050919050565b61109e81611083565b82525050565b60006020820190506110b96000830184611095565b92915050565b60008115159050919050565b6110d4816110bf565b82525050565b600081519050919050565b600082825260208201905092915050565b60005b838110156111145780820151818401526020810190506110f9565b60008484015250505050565b600061112b826110da565b61113581856110e5565b93506111458185602086016110f6565b61114e81610db5565b840191505092915050565b600060408201905061116e60008301856110cb565b81810360208301526111808184611120565b90509392505050565b6000819050919050565b61119c81611189565b82525050565b60006020820190506111b76000830184611193565b92915050565b600067ffffffffffffffff82169050919050565b6111da816111bd565b82525050565b60006020820190506111f560008301846111d1565b92915050565b60006020828403121561121157611210610d7a565b5b600061121f84828501610d9b565b91505092915050565b600060408201905061123d6000830185611095565b61124a6020830184611095565b9392505050565b60006060820190506112666000830186610cb4565b6112736020830185610cb4565b6112806040830184610cb4565b949350505050565b600061ffff82169050919050565b61129f81611288565b82525050565b600063ffffffff82169050919050565b6112be816112a5565b82525050565b600060a0820190506112d96000830188611193565b6112e660208301876111d1565b6112f36040830186611296565b61130060608301856112b5565b61130d60808301846112b5565b9695505050505050565b60008151905061132681610d84565b92915050565b60006020828403121561134257611341610d7a565b5b600061135084828501611317565b91505092915050565b7f4e487b7100000000000000000000000000000000000000000000000000000000600052601160045260246000fd5b600061139382610caa565b915061139e83610caa565b92508282039050818111156113b6576113b5611359565b5b92915050565b7f4e487b7100000000000000000000000000000000000000000000000000000000600052603260045260246000fd5b7f4e487b7100000000000000000000000000000000000000000000000000000000600052601260045260246000fd5b600061142582610caa565b915061143083610caa565b9250826114405761143f6113eb565b5b828206905092915050565b600081905092915050565b50565b600061146660008361144b565b915061147182611456565b600082019050919050565b600061148782611459565b915081905091905056fea2646970667358221220b69e51d6839a439bbd42b97e13c4eddad0a41ebb9864cf0059bd9792f44bc88a64736f6c63430008120033",
  "devdoc": {
    "author": "Ejim Favour",
    "details": "This implements chainlink VRF V2 and keepers",
    "kind": "dev",
    "methods": {
      "checkUpkeep(bytes)": {
        "details": "this is the function that the chainlink nodes call they look for the \"upkeepNeeded\" to return true The following should be true in ordder to return true 1. Our time interval should have passed 2. The lottery should have at least 1 player, and have some ETH 3. Our subscription is funded with LINK 4. Lottery should be in an \"open\" state"
      },
      "performUpkeep(bytes)": {
        "details": "This function is called by the chainlink keepers when upkeep is needed"
      }
    },
    "title": "A sample raffle contract",
    "version": 1
  },
  "userdoc": {
    "kind": "user",
    "methods": {},
    "notice": "This contract is for creating an untamparable decentralized smart contract",
    "version": 1
  },
  "storageLayout": {
    "storage": [
      {
        "astId": 208,
        "contract": "contracts/Raffle.sol:Raffle",
        "label": "s_players",
        "offset": 0,
        "slot": "0",
        "type": "t_array(t_address_payable)dyn_storage"
      },
      {
        "astId": 225,
        "contract": "contracts/Raffle.sol:Raffle",
        "label": "s_recentWinner",
        "offset": 0,
        "slot": "1",
        "type": "t_address"
      },
      {
        "astId": 228,
        "contract": "contracts/Raffle.sol:Raffle",
        "label": "s_raffleState",
        "offset": 20,
        "slot": "1",
        "type": "t_enum(RaffleState)203"
      },
      {
        "astId": 230,
        "contract": "contracts/Raffle.sol:Raffle",
        "label": "s_lastTimeStamp",
        "offset": 0,
        "slot": "2",
        "type": "t_uint256"
      }
    ],
    "types": {
      "t_address": {
        "encoding": "inplace",
        "label": "address",
        "numberOfBytes": "20"
      },
      "t_address_payable": {
        "encoding": "inplace",
        "label": "address payable",
        "numberOfBytes": "20"
      },
      "t_array(t_address_payable)dyn_storage": {
        "base": "t_address_payable",
        "encoding": "dynamic_array",
        "label": "address payable[]",
        "numberOfBytes": "32"
      },
      "t_enum(RaffleState)203": {
        "encoding": "inplace",
        "label": "enum Raffle.RaffleState",
        "numberOfBytes": "1"
      },
      "t_uint256": {
        "encoding": "inplace",
        "label": "uint256",
        "numberOfBytes": "32"
      }
    }
  }
}